{
  "_format": "hh-sol-artifact-1",
  "contractName": "EscrowFactory",
  "sourceName": "contracts/EscrowFactory.sol",
  "abi": [
    {
      "anonymous": false,
      "inputs": [
        {
          "indexed": true,
          "internalType": "address",
          "name": "escrowAddress",
          "type": "address"
        },
        {
          "indexed": true,
          "internalType": "address",
          "name": "buyer",
          "type": "address"
        },
        {
          "indexed": true,
          "internalType": "address",
          "name": "seller",
          "type": "address"
        },
        {
          "indexed": false,
          "internalType": "uint256",
          "name": "amount",
          "type": "uint256"
        }
      ],
      "name": "EscrowCreated",
      "type": "event"
    },
    {
      "inputs": [
        {
          "internalType": "address",
          "name": "_seller",
          "type": "address"
        },
        {
          "internalType": "address",
          "name": "_arbiter",
          "type": "address"
        }
      ],
      "name": "createEscrow",
      "outputs": [],
      "stateMutability": "payable",
      "type": "function"
    },
    {
      "inputs": [
        {
          "internalType": "uint256",
          "name": "",
          "type": "uint256"
        }
      ],
      "name": "escrows",
      "outputs": [
        {
          "internalType": "address",
          "name": "escrowAddress",
          "type": "address"
        },
        {
          "internalType": "address",
          "name": "buyer",
          "type": "address"
        },
        {
          "internalType": "address",
          "name": "seller",
          "type": "address"
        },
        {
          "internalType": "address",
          "name": "arbiter",
          "type": "address"
        },
        {
          "internalType": "uint256",
          "name": "amount",
          "type": "uint256"
        }
      ],
      "stateMutability": "view",
      "type": "function"
    },
    {
      "inputs": [],
      "name": "getAllEscrows",
      "outputs": [
        {
          "components": [
            {
              "internalType": "address",
              "name": "escrowAddress",
              "type": "address"
            },
            {
              "internalType": "address",
              "name": "buyer",
              "type": "address"
            },
            {
              "internalType": "address",
              "name": "seller",
              "type": "address"
            },
            {
              "internalType": "address",
              "name": "arbiter",
              "type": "address"
            },
            {
              "internalType": "uint256",
              "name": "amount",
              "type": "uint256"
            }
          ],
          "internalType": "struct EscrowFactory.EscrowInfo[]",
          "name": "",
          "type": "tuple[]"
        }
      ],
      "stateMutability": "view",
      "type": "function"
    }
  ],
  "bytecode": "0x6080604052348015600f57600080fd5b506115c98061001f6000396000f3fe6080604052600436106100345760003560e01c8063012f52ee14610039578063834cc6fc1461007a5780639a6ac36f14610096575b600080fd5b34801561004557600080fd5b50610060600480360381019061005b9190610621565b6100c1565b60405161007195949392919061069e565b60405180910390f35b610094600480360381019061008f919061071d565b610187565b005b3480156100a257600080fd5b506100ab610418565b6040516100b89190610892565b60405180910390f35b600081815481106100d157600080fd5b90600052602060002090600502016000915090508060000160009054906101000a900473ffffffffffffffffffffffffffffffffffffffff16908060010160009054906101000a900473ffffffffffffffffffffffffffffffffffffffff16908060020160009054906101000a900473ffffffffffffffffffffffffffffffffffffffff16908060030160009054906101000a900473ffffffffffffffffffffffffffffffffffffffff16908060040154905085565b600034338484604051610199906105d9565b6101a5939291906108b4565b6040518091039082f09050801580156101c2573d6000803e3d6000fd5b50905060006040518060a001604052808373ffffffffffffffffffffffffffffffffffffffff1681526020013373ffffffffffffffffffffffffffffffffffffffff1681526020018573ffffffffffffffffffffffffffffffffffffffff1681526020018473ffffffffffffffffffffffffffffffffffffffff16815260200134815250908060018154018082558091505060019003906000526020600020906005020160009091909190915060008201518160000160006101000a81548173ffffffffffffffffffffffffffffffffffffffff021916908373ffffffffffffffffffffffffffffffffffffffff16021790555060208201518160010160006101000a81548173ffffffffffffffffffffffffffffffffffffffff021916908373ffffffffffffffffffffffffffffffffffffffff16021790555060408201518160020160006101000a81548173ffffffffffffffffffffffffffffffffffffffff021916908373ffffffffffffffffffffffffffffffffffffffff16021790555060608201518160030160006101000a81548173ffffffffffffffffffffffffffffffffffffffff021916908373ffffffffffffffffffffffffffffffffffffffff1602179055506080820151816004015550508273ffffffffffffffffffffffffffffffffffffffff163373ffffffffffffffffffffffffffffffffffffffff168273ffffffffffffffffffffffffffffffffffffffff167fd99c67ae0185d6b0a36717d67d259f252914f7955744e4d81a91685ff480896d3460405161040b91906108eb565b60405180910390a4505050565b60606000805480602002602001604051908101604052809291908181526020016000905b828210156105d057838290600052602060002090600502016040518060a00160405290816000820160009054906101000a900473ffffffffffffffffffffffffffffffffffffffff1673ffffffffffffffffffffffffffffffffffffffff1673ffffffffffffffffffffffffffffffffffffffff1681526020016001820160009054906101000a900473ffffffffffffffffffffffffffffffffffffffff1673ffffffffffffffffffffffffffffffffffffffff1673ffffffffffffffffffffffffffffffffffffffff1681526020016002820160009054906101000a900473ffffffffffffffffffffffffffffffffffffffff1673ffffffffffffffffffffffffffffffffffffffff1673ffffffffffffffffffffffffffffffffffffffff1681526020016003820160009054906101000a900473ffffffffffffffffffffffffffffffffffffffff1673ffffffffffffffffffffffffffffffffffffffff1673ffffffffffffffffffffffffffffffffffffffff1681526020016004820154815250508152602001906001019061043c565b50505050905090565b610c8d8061090783390190565b600080fd5b6000819050919050565b6105fe816105eb565b811461060957600080fd5b50565b60008135905061061b816105f5565b92915050565b600060208284031215610637576106366105e6565b5b60006106458482850161060c565b91505092915050565b600073ffffffffffffffffffffffffffffffffffffffff82169050919050565b60006106798261064e565b9050919050565b6106898161066e565b82525050565b610698816105eb565b82525050565b600060a0820190506106b36000830188610680565b6106c06020830187610680565b6106cd6040830186610680565b6106da6060830185610680565b6106e7608083018461068f565b9695505050505050565b6106fa8161066e565b811461070557600080fd5b50565b600081359050610717816106f1565b92915050565b60008060408385031215610734576107336105e6565b5b600061074285828601610708565b925050602061075385828601610708565b9150509250929050565b600081519050919050565b600082825260208201905092915050565b6000819050602082019050919050565b6107928161066e565b82525050565b6107a1816105eb565b82525050565b60a0820160008201516107bd6000850182610789565b5060208201516107d06020850182610789565b5060408201516107e36040850182610789565b5060608201516107f66060850182610789565b5060808201516108096080850182610798565b50505050565b600061081b83836107a7565b60a08301905092915050565b6000602082019050919050565b600061083f8261075d565b6108498185610768565b935061085483610779565b8060005b8381101561088557815161086c888261080f565b975061087783610827565b925050600181019050610858565b5085935050505092915050565b600060208201905081810360008301526108ac8184610834565b905092915050565b60006060820190506108c96000830186610680565b6108d66020830185610680565b6108e36040830184610680565b949350505050565b6000602082019050610900600083018461068f565b9291505056fe6080604052604051610c8d380380610c8d833981810160405281019061002591906101c0565b826000806101000a81548173ffffffffffffffffffffffffffffffffffffffff021916908373ffffffffffffffffffffffffffffffffffffffff16021790555081600160006101000a81548173ffffffffffffffffffffffffffffffffffffffff021916908373ffffffffffffffffffffffffffffffffffffffff16021790555080600260006101000a81548173ffffffffffffffffffffffffffffffffffffffff021916908373ffffffffffffffffffffffffffffffffffffffff16021790555060008054906101000a900473ffffffffffffffffffffffffffffffffffffffff1673ffffffffffffffffffffffffffffffffffffffff167fe1fffcc4923d04b559f4d29a8bfc6cda04eb5b0d3c460751c2402c5c5cc9109c3460405161014d919061022c565b60405180910390a2505050610247565b600080fd5b600073ffffffffffffffffffffffffffffffffffffffff82169050919050565b600061018d82610162565b9050919050565b61019d81610182565b81146101a857600080fd5b50565b6000815190506101ba81610194565b92915050565b6000806000606084860312156101d9576101d861015d565b5b60006101e7868287016101ab565b93505060206101f8868287016101ab565b9250506040610209868287016101ab565b9150509250925092565b6000819050919050565b61022681610213565b82525050565b6000602082019050610241600083018461021d565b92915050565b610a37806102566000396000f3fe608060405234801561001057600080fd5b50600436106100885760003560e01c80637150d8ae1161005b5780637150d8ae146100dd578063779cd083146100fb578063a8ba002314610119578063fe25e00a1461013757610088565b806308551a531461008d57806312065fe0146100ab578063590e1ae3146100c95780635e10177b146100d3575b600080fd5b610095610155565b6040516100a291906106e3565b60405180910390f35b6100b361017b565b6040516100c09190610717565b60405180910390f35b6100d1610183565b005b6100db610407565b005b6100e5610632565b6040516100f291906106e3565b60405180910390f35b610103610656565b604051610110919061074d565b60405180910390f35b610121610669565b60405161012e919061074d565b60405180910390f35b61013f61067c565b60405161014c91906106e3565b60405180910390f35b600160009054906101000a900473ffffffffffffffffffffffffffffffffffffffff1681565b600047905090565b600160009054906101000a900473ffffffffffffffffffffffffffffffffffffffff1673ffffffffffffffffffffffffffffffffffffffff163373ffffffffffffffffffffffffffffffffffffffff16148061022c5750600260009054906101000a900473ffffffffffffffffffffffffffffffffffffffff1673ffffffffffffffffffffffffffffffffffffffff163373ffffffffffffffffffffffffffffffffffffffff16145b61026b576040517f08c379a0000000000000000000000000000000000000000000000000000000008152600401610262906107eb565b60405180910390fd5b600047116102ae576040517f08c379a00000000000000000000000000000000000000000000000000000000081526004016102a590610857565b60405180910390fd5b6001600260156101000a81548160ff02191690831515021790555060008060009054906101000a900473ffffffffffffffffffffffffffffffffffffffff1673ffffffffffffffffffffffffffffffffffffffff1647604051610310906108a8565b60006040518083038185875af1925050503d806000811461034d576040519150601f19603f3d011682016040523d82523d6000602084013e610352565b606091505b5050905080610396576040517f08c379a000000000000000000000000000000000000000000000000000000000815260040161038d90610909565b60405180910390fd5b60008054906101000a900473ffffffffffffffffffffffffffffffffffffffff1673ffffffffffffffffffffffffffffffffffffffff167fd7dee2702d63ad89917b6a4da9981c90c4d24f8c2bdfd64c604ecae57d8d0651476040516103fc9190610717565b60405180910390a250565b60008054906101000a900473ffffffffffffffffffffffffffffffffffffffff1673ffffffffffffffffffffffffffffffffffffffff163373ffffffffffffffffffffffffffffffffffffffff1614610495576040517f08c379a000000000000000000000000000000000000000000000000000000000815260040161048c90610975565b60405180910390fd5b600047116104d8576040517f08c379a00000000000000000000000000000000000000000000000000000000081526004016104cf906109e1565b60405180910390fd5b6001600260146101000a81548160ff0219169083151502179055506000600160009054906101000a900473ffffffffffffffffffffffffffffffffffffffff1673ffffffffffffffffffffffffffffffffffffffff164760405161053b906108a8565b60006040518083038185875af1925050503d8060008114610578576040519150601f19603f3d011682016040523d82523d6000602084013e61057d565b606091505b50509050806105c1576040517f08c379a00000000000000000000000000000000000000000000000000000000081526004016105b890610909565b60405180910390fd5b60008054906101000a900473ffffffffffffffffffffffffffffffffffffffff1673ffffffffffffffffffffffffffffffffffffffff167f28720c586a6e736146008f9bf260b09f29b8dcc37314fed637613ea3aec614f8476040516106279190610717565b60405180910390a250565b60008054906101000a900473ffffffffffffffffffffffffffffffffffffffff1681565b600260159054906101000a900460ff1681565b600260149054906101000a900460ff1681565b600260009054906101000a900473ffffffffffffffffffffffffffffffffffffffff1681565b600073ffffffffffffffffffffffffffffffffffffffff82169050919050565b60006106cd826106a2565b9050919050565b6106dd816106c2565b82525050565b60006020820190506106f860008301846106d4565b92915050565b6000819050919050565b610711816106fe565b82525050565b600060208201905061072c6000830184610708565b92915050565b60008115159050919050565b61074781610732565b82525050565b6000602082019050610762600083018461073e565b92915050565b600082825260208201905092915050565b7f4f6e6c792073656c6c6572206f7220617262697465722063616e20726566756e60008201527f6400000000000000000000000000000000000000000000000000000000000000602082015250565b60006107d5602183610768565b91506107e082610779565b604082019050919050565b60006020820190508181036000830152610804816107c8565b9050919050565b7f4e6f2066756e647320746f20726566756e640000000000000000000000000000600082015250565b6000610841601283610768565b915061084c8261080b565b602082019050919050565b6000602082019050818103600083015261087081610834565b9050919050565b600081905092915050565b50565b6000610892600083610877565b915061089d82610882565b600082019050919050565b60006108b382610885565b9150819050919050565b7f4661696c656420746f2073656e64204574686572000000000000000000000000600082015250565b60006108f3601483610768565b91506108fe826108bd565b602082019050919050565b60006020820190508181036000830152610922816108e6565b9050919050565b7f4f6e6c792062757965722063616e20636f6e6669726d2064656c697665727900600082015250565b600061095f601f83610768565b915061096a82610929565b602082019050919050565b6000602082019050818103600083015261098e81610952565b9050919050565b7f4e6f2066756e647320746f2072656c6561736500000000000000000000000000600082015250565b60006109cb601383610768565b91506109d682610995565b602082019050919050565b600060208201905081810360008301526109fa816109be565b905091905056fea2646970667358221220731fefaba6a85f64cac49abd3734f90c6546c63014fde5a988e9e6f8e526deaa64736f6c634300081b0033a264697066735822122054d056963ccbf2b0909e2e8375c89c8106dc8dbd29cfab5e254bb489d5440a6a64736f6c634300081b0033",
  "linkReferences": {},
  "deployedLinkReferences": {}
}