{
  "_format": "hh-sol-artifact-1",
  "contractName": "Escrow",
  "sourceName": "contracts/Escrow.sol",
  "abi": [
    {
      "inputs": [
        {
          "internalType": "address",
          "name": "_buyer",
          "type": "address"
        },
        {
          "internalType": "address",
          "name": "_seller",
          "type": "address"
        },
        {
          "internalType": "address",
          "name": "_arbiter",
          "type": "address"
        }
      ],
      "stateMutability": "payable",
      "type": "constructor"
    },
    {
      "anonymous": false,
      "inputs": [
        {
          "indexed": true,
          "internalType": "address",
          "name": "buyer",
          "type": "address"
        },
        {
          "indexed": false,
          "internalType": "uint256",
          "name": "amount",
          "type": "uint256"
        }
      ],
      "name": "DeliveryConfirmed",
      "type": "event"
    },
    {
      "anonymous": false,
      "inputs": [
        {
          "indexed": true,
          "internalType": "address",
          "name": "buyer",
          "type": "address"
        },
        {
          "indexed": false,
          "internalType": "uint256",
          "name": "amount",
          "type": "uint256"
        }
      ],
      "name": "Deposit",
      "type": "event"
    },
    {
      "anonymous": false,
      "inputs": [
        {
          "indexed": true,
          "internalType": "address",
          "name": "buyer",
          "type": "address"
        },
        {
          "indexed": false,
          "internalType": "string",
          "name": "reason",
          "type": "string"
        },
        {
          "indexed": false,
          "internalType": "uint256",
          "name": "timestamp",
          "type": "uint256"
        }
      ],
      "name": "DisputeRaised",
      "type": "event"
    },
    {
      "anonymous": false,
      "inputs": [
        {
          "indexed": true,
          "internalType": "address",
          "name": "buyer",
          "type": "address"
        },
        {
          "indexed": false,
          "internalType": "uint256",
          "name": "amount",
          "type": "uint256"
        }
      ],
      "name": "Refunded",
      "type": "event"
    },
    {
      "inputs": [],
      "name": "arbiter",
      "outputs": [
        {
          "internalType": "address",
          "name": "",
          "type": "address"
        }
      ],
      "stateMutability": "view",
      "type": "function"
    },
    {
      "inputs": [],
      "name": "buyer",
      "outputs": [
        {
          "internalType": "address",
          "name": "",
          "type": "address"
        }
      ],
      "stateMutability": "view",
      "type": "function"
    },
    {
      "inputs": [],
      "name": "confirmDelivery",
      "outputs": [],
      "stateMutability": "nonpayable",
      "type": "function"
    },
    {
      "inputs": [],
      "name": "disputeReason",
      "outputs": [
        {
          "internalType": "string",
          "name": "",
          "type": "string"
        }
      ],
      "stateMutability": "view",
      "type": "function"
    },
    {
      "inputs": [],
      "name": "disputeTimestamp",
      "outputs": [
        {
          "internalType": "uint256",
          "name": "",
          "type": "uint256"
        }
      ],
      "stateMutability": "view",
      "type": "function"
    },
    {
      "inputs": [],
      "name": "getBalance",
      "outputs": [
        {
          "internalType": "uint256",
          "name": "",
          "type": "uint256"
        }
      ],
      "stateMutability": "view",
      "type": "function"
    },
    {
      "inputs": [],
      "name": "isDeliveryConfirmed",
      "outputs": [
        {
          "internalType": "bool",
          "name": "",
          "type": "bool"
        }
      ],
      "stateMutability": "view",
      "type": "function"
    },
    {
      "inputs": [],
      "name": "isDisputed",
      "outputs": [
        {
          "internalType": "bool",
          "name": "",
          "type": "bool"
        }
      ],
      "stateMutability": "view",
      "type": "function"
    },
    {
      "inputs": [],
      "name": "isRefunded",
      "outputs": [
        {
          "internalType": "bool",
          "name": "",
          "type": "bool"
        }
      ],
      "stateMutability": "view",
      "type": "function"
    },
    {
      "inputs": [
        {
          "internalType": "string",
          "name": "_reason",
          "type": "string"
        }
      ],
      "name": "raiseDispute",
      "outputs": [],
      "stateMutability": "nonpayable",
      "type": "function"
    },
    {
      "inputs": [],
      "name": "refund",
      "outputs": [],
      "stateMutability": "nonpayable",
      "type": "function"
    },
    {
      "inputs": [],
      "name": "seller",
      "outputs": [
        {
          "internalType": "address",
          "name": "",
          "type": "address"
        }
      ],
      "stateMutability": "view",
      "type": "function"
    }
  ],
  "bytecode": "0x6080604052604051611872380380611872833981810160405281019061002591906101c0565b826000806101000a81548173ffffffffffffffffffffffffffffffffffffffff021916908373ffffffffffffffffffffffffffffffffffffffff16021790555081600160006101000a81548173ffffffffffffffffffffffffffffffffffffffff021916908373ffffffffffffffffffffffffffffffffffffffff16021790555080600260006101000a81548173ffffffffffffffffffffffffffffffffffffffff021916908373ffffffffffffffffffffffffffffffffffffffff16021790555060008054906101000a900473ffffffffffffffffffffffffffffffffffffffff1673ffffffffffffffffffffffffffffffffffffffff167fe1fffcc4923d04b559f4d29a8bfc6cda04eb5b0d3c460751c2402c5c5cc9109c3460405161014d919061022c565b60405180910390a2505050610247565b600080fd5b600073ffffffffffffffffffffffffffffffffffffffff82169050919050565b600061018d82610162565b9050919050565b61019d81610182565b81146101a857600080fd5b50565b6000815190506101ba81610194565b92915050565b6000806000606084860312156101d9576101d861015d565b5b60006101e7868287016101ab565b93505060206101f8868287016101ab565b9250506040610209868287016101ab565b9150509250925092565b6000819050919050565b61022681610213565b82525050565b6000602082019050610241600083018461021d565b92915050565b61161c806102566000396000f3fe608060405234801561001057600080fd5b50600436106100b45760003560e01c8063725a3b4b11610071578063725a3b4b14610145578063779cd083146101615780637bf6c1041461017f578063a8ba00231461019d578063c3018f98146101bb578063fe25e00a146101d9576100b4565b80630335729e146100b957806308551a53146100d757806312065fe0146100f5578063590e1ae3146101135780635e10177b1461011d5780637150d8ae14610127575b600080fd5b6100c16101f7565b6040516100ce9190610ab3565b60405180910390f35b6100df61020a565b6040516100ec9190610b0f565b60405180910390f35b6100fd610230565b60405161010a9190610b43565b60405180910390f35b61011b610238565b005b6101256104bc565b005b61012f6106e7565b60405161013c9190610b0f565b60405180910390f35b61015f600480360381019061015a9190610cb8565b61070b565b005b6101696109b8565b6040516101769190610ab3565b60405180910390f35b6101876109cb565b6040516101949190610d80565b60405180910390f35b6101a5610a59565b6040516101b29190610ab3565b60405180910390f35b6101c3610a6c565b6040516101d09190610b43565b60405180910390f35b6101e1610a72565b6040516101ee9190610b0f565b60405180910390f35b600260169054906101000a900460ff1681565b600160009054906101000a900473ffffffffffffffffffffffffffffffffffffffff1681565b600047905090565b600160009054906101000a900473ffffffffffffffffffffffffffffffffffffffff1673ffffffffffffffffffffffffffffffffffffffff163373ffffffffffffffffffffffffffffffffffffffff1614806102e15750600260009054906101000a900473ffffffffffffffffffffffffffffffffffffffff1673ffffffffffffffffffffffffffffffffffffffff163373ffffffffffffffffffffffffffffffffffffffff16145b610320576040517f08c379a000000000000000000000000000000000000000000000000000000000815260040161031790610e14565b60405180910390fd5b60004711610363576040517f08c379a000000000000000000000000000000000000000000000000000000000815260040161035a90610e80565b60405180910390fd5b6001600260156101000a81548160ff02191690831515021790555060008060009054906101000a900473ffffffffffffffffffffffffffffffffffffffff1673ffffffffffffffffffffffffffffffffffffffff16476040516103c590610ed1565b60006040518083038185875af1925050503d8060008114610402576040519150601f19603f3d011682016040523d82523d6000602084013e610407565b606091505b505090508061044b576040517f08c379a000000000000000000000000000000000000000000000000000000000815260040161044290610f32565b60405180910390fd5b60008054906101000a900473ffffffffffffffffffffffffffffffffffffffff1673ffffffffffffffffffffffffffffffffffffffff167fd7dee2702d63ad89917b6a4da9981c90c4d24f8c2bdfd64c604ecae57d8d0651476040516104b19190610b43565b60405180910390a250565b60008054906101000a900473ffffffffffffffffffffffffffffffffffffffff1673ffffffffffffffffffffffffffffffffffffffff163373ffffffffffffffffffffffffffffffffffffffff161461054a576040517f08c379a000000000000000000000000000000000000000000000000000000000815260040161054190610f9e565b60405180910390fd5b6000471161058d576040517f08c379a00000000000000000000000000000000000000000000000000000000081526004016105849061100a565b60405180910390fd5b6001600260146101000a81548160ff0219169083151502179055506000600160009054906101000a900473ffffffffffffffffffffffffffffffffffffffff1673ffffffffffffffffffffffffffffffffffffffff16476040516105f090610ed1565b60006040518083038185875af1925050503d806000811461062d576040519150601f19603f3d011682016040523d82523d6000602084013e610632565b606091505b5050905080610676576040517f08c379a000000000000000000000000000000000000000000000000000000000815260040161066d90610f32565b60405180910390fd5b60008054906101000a900473ffffffffffffffffffffffffffffffffffffffff1673ffffffffffffffffffffffffffffffffffffffff167f28720c586a6e736146008f9bf260b09f29b8dcc37314fed637613ea3aec614f8476040516106dc9190610b43565b60405180910390a250565b60008054906101000a900473ffffffffffffffffffffffffffffffffffffffff1681565b60008054906101000a900473ffffffffffffffffffffffffffffffffffffffff1673ffffffffffffffffffffffffffffffffffffffff163373ffffffffffffffffffffffffffffffffffffffff1614610799576040517f08c379a000000000000000000000000000000000000000000000000000000000815260040161079090611076565b60405180910390fd5b600260169054906101000a900460ff16156107e9576040517f08c379a00000000000000000000000000000000000000000000000000000000081526004016107e0906110e2565b60405180910390fd5b600260149054906101000a900460ff1615610839576040517f08c379a000000000000000000000000000000000000000000000000000000000815260040161083090611174565b60405180910390fd5b600260159054906101000a900460ff1615610889576040517f08c379a0000000000000000000000000000000000000000000000000000000008152600401610880906111e0565b60405180910390fd5b60008151116108cd576040517f08c379a00000000000000000000000000000000000000000000000000000000081526004016108c49061124c565b60405180910390fd5b6103e881511115610913576040517f08c379a000000000000000000000000000000000000000000000000000000000815260040161090a906112b8565b60405180910390fd5b6001600260166101000a81548160ff021916908315150217905550806003908161093d91906114e4565b504260048190555060008054906101000a900473ffffffffffffffffffffffffffffffffffffffff1673ffffffffffffffffffffffffffffffffffffffff167fd4882c6b71dfbb8df0a01fa4cd97676f243a56dd525df6b891b2e1700e514e8982426040516109ad9291906115b6565b60405180910390a250565b600260159054906101000a900460ff1681565b600380546109d890611307565b80601f0160208091040260200160405190810160405280929190818152602001828054610a0490611307565b8015610a515780601f10610a2657610100808354040283529160200191610a51565b820191906000526020600020905b815481529060010190602001808311610a3457829003601f168201915b505050505081565b600260149054906101000a900460ff1681565b60045481565b600260009054906101000a900473ffffffffffffffffffffffffffffffffffffffff1681565b60008115159050919050565b610aad81610a98565b82525050565b6000602082019050610ac86000830184610aa4565b92915050565b600073ffffffffffffffffffffffffffffffffffffffff82169050919050565b6000610af982610ace565b9050919050565b610b0981610aee565b82525050565b6000602082019050610b246000830184610b00565b92915050565b6000819050919050565b610b3d81610b2a565b82525050565b6000602082019050610b586000830184610b34565b92915050565b6000604051905090565b600080fd5b600080fd5b600080fd5b600080fd5b6000601f19601f8301169050919050565b7f4e487b7100000000000000000000000000000000000000000000000000000000600052604160045260246000fd5b610bc582610b7c565b810181811067ffffffffffffffff82111715610be457610be3610b8d565b5b80604052505050565b6000610bf7610b5e565b9050610c038282610bbc565b919050565b600067ffffffffffffffff821115610c2357610c22610b8d565b5b610c2c82610b7c565b9050602081019050919050565b82818337600083830152505050565b6000610c5b610c5684610c08565b610bed565b905082815260208101848484011115610c7757610c76610b77565b5b610c82848285610c39565b509392505050565b600082601f830112610c9f57610c9e610b72565b5b8135610caf848260208601610c48565b91505092915050565b600060208284031215610cce57610ccd610b68565b5b600082013567ffffffffffffffff811115610cec57610ceb610b6d565b5b610cf884828501610c8a565b91505092915050565b600081519050919050565b600082825260208201905092915050565b60005b83811015610d3b578082015181840152602081019050610d20565b60008484015250505050565b6000610d5282610d01565b610d5c8185610d0c565b9350610d6c818560208601610d1d565b610d7581610b7c565b840191505092915050565b60006020820190508181036000830152610d9a8184610d47565b905092915050565b7f4f6e6c792073656c6c6572206f7220617262697465722063616e20726566756e60008201527f6400000000000000000000000000000000000000000000000000000000000000602082015250565b6000610dfe602183610d0c565b9150610e0982610da2565b604082019050919050565b60006020820190508181036000830152610e2d81610df1565b9050919050565b7f4e6f2066756e647320746f20726566756e640000000000000000000000000000600082015250565b6000610e6a601283610d0c565b9150610e7582610e34565b602082019050919050565b60006020820190508181036000830152610e9981610e5d565b9050919050565b600081905092915050565b50565b6000610ebb600083610ea0565b9150610ec682610eab565b600082019050919050565b6000610edc82610eae565b9150819050919050565b7f4661696c656420746f2073656e64204574686572000000000000000000000000600082015250565b6000610f1c601483610d0c565b9150610f2782610ee6565b602082019050919050565b60006020820190508181036000830152610f4b81610f0f565b9050919050565b7f4f6e6c792062757965722063616e20636f6e6669726d2064656c697665727900600082015250565b6000610f88601f83610d0c565b9150610f9382610f52565b602082019050919050565b60006020820190508181036000830152610fb781610f7b565b9050919050565b7f4e6f2066756e647320746f2072656c6561736500000000000000000000000000600082015250565b6000610ff4601383610d0c565b9150610fff82610fbe565b602082019050919050565b6000602082019050818103600083015261102381610fe7565b9050919050565b7f4f6e6c792062757965722063616e207261697365206469737075746500000000600082015250565b6000611060601c83610d0c565b915061106b8261102a565b602082019050919050565b6000602082019050818103600083015261108f81611053565b9050919050565b7f4469737075746520616c72656164792072616973656400000000000000000000600082015250565b60006110cc601683610d0c565b91506110d782611096565b602082019050919050565b600060208201905081810360008301526110fb816110bf565b9050919050565b7f43616e6e6f7420646973707574652061667465722064656c697665727920636f60008201527f6e6669726d656400000000000000000000000000000000000000000000000000602082015250565b600061115e602783610d0c565b915061116982611102565b604082019050919050565b6000602082019050818103600083015261118d81611151565b9050919050565b7f43616e6e6f74206469737075746520616674657220726566756e640000000000600082015250565b60006111ca601b83610d0c565b91506111d582611194565b602082019050919050565b600060208201905081810360008301526111f9816111bd565b9050919050565b7f4469737075746520726561736f6e2063616e6e6f7420626520656d7074790000600082015250565b6000611236601e83610d0c565b915061124182611200565b602082019050919050565b6000602082019050818103600083015261126581611229565b9050919050565b7f4469737075746520726561736f6e20746f6f206c6f6e67000000000000000000600082015250565b60006112a2601783610d0c565b91506112ad8261126c565b602082019050919050565b600060208201905081810360008301526112d181611295565b9050919050565b7f4e487b7100000000000000000000000000000000000000000000000000000000600052602260045260246000fd5b6000600282049050600182168061131f57607f821691505b602082108103611332576113316112d8565b5b50919050565b60008190508160005260206000209050919050565b60006020601f8301049050919050565b600082821b905092915050565b60006008830261139a7fffffffffffffffffffffffffffffffffffffffffffffffffffffffffffffffff8261135d565b6113a4868361135d565b95508019841693508086168417925050509392505050565b6000819050919050565b60006113e16113dc6113d784610b2a565b6113bc565b610b2a565b9050919050565b6000819050919050565b6113fb836113c6565b61140f611407826113e8565b84845461136a565b825550505050565b600090565b611424611417565b61142f8184846113f2565b505050565b5b818110156114535761144860008261141c565b600181019050611435565b5050565b601f8211156114985761146981611338565b6114728461134d565b81016020851015611481578190505b61149561148d8561134d565b830182611434565b50505b505050565b600082821c905092915050565b60006114bb6000198460080261149d565b1980831691505092915050565b60006114d483836114aa565b9150826002028217905092915050565b6114ed82610d01565b67ffffffffffffffff81111561150657611505610b8d565b5b6115108254611307565b61151b828285611457565b600060209050601f83116001811461154e576000841561153c578287015190505b61154685826114c8565b8655506115ae565b601f19841661155c86611338565b60005b828110156115845784890151825560018201915060208501945060208101905061155f565b868310156115a1578489015161159d601f8916826114aa565b8355505b6001600288020188555050505b505050505050565b600060408201905081810360008301526115d08185610d47565b90506115df6020830184610b34565b939250505056fea264697066735822122092369ba72aec38c2f3f3e372c69e770a2a38a605259ff18be29969c0a1289d4364736f6c634300081b0033",
  "linkReferences": {},
  "deployedLinkReferences": {}
}