{
  "_format": "hh-sol-artifact-1",
  "contractName": "Escrow",
  "sourceName": "contracts/Escrow.sol",
  "abi": [
    {
      "inputs": [
        {
          "internalType": "address",
          "name": "_buyer",
          "type": "address"
        },
        {
          "internalType": "address",
          "name": "_seller",
          "type": "address"
        },
        {
          "internalType": "address",
          "name": "_arbiter",
          "type": "address"
        }
      ],
      "stateMutability": "payable",
      "type": "constructor"
    },
    {
      "anonymous": false,
      "inputs": [
        {
          "indexed": true,
          "internalType": "address",
          "name": "buyer",
          "type": "address"
        },
        {
          "indexed": false,
          "internalType": "uint256",
          "name": "amount",
          "type": "uint256"
        }
      ],
      "name": "DeliveryConfirmed",
      "type": "event"
    },
    {
      "anonymous": false,
      "inputs": [
        {
          "indexed": true,
          "internalType": "address",
          "name": "buyer",
          "type": "address"
        },
        {
          "indexed": false,
          "internalType": "uint256",
          "name": "amount",
          "type": "uint256"
        }
      ],
      "name": "Deposit",
      "type": "event"
    },
    {
      "anonymous": false,
      "inputs": [
        {
          "indexed": true,
          "internalType": "address",
          "name": "buyer",
          "type": "address"
        },
        {
          "indexed": false,
          "internalType": "uint256",
          "name": "amount",
          "type": "uint256"
        }
      ],
      "name": "Refunded",
      "type": "event"
    },
    {
      "inputs": [],
      "name": "arbiter",
      "outputs": [
        {
          "internalType": "address",
          "name": "",
          "type": "address"
        }
      ],
      "stateMutability": "view",
      "type": "function"
    },
    {
      "inputs": [],
      "name": "buyer",
      "outputs": [
        {
          "internalType": "address",
          "name": "",
          "type": "address"
        }
      ],
      "stateMutability": "view",
      "type": "function"
    },
    {
      "inputs": [],
      "name": "confirmDelivery",
      "outputs": [],
      "stateMutability": "nonpayable",
      "type": "function"
    },
    {
      "inputs": [],
      "name": "getBalance",
      "outputs": [
        {
          "internalType": "uint256",
          "name": "",
          "type": "uint256"
        }
      ],
      "stateMutability": "view",
      "type": "function"
    },
    {
      "inputs": [],
      "name": "isDeliveryConfirmed",
      "outputs": [
        {
          "internalType": "bool",
          "name": "",
          "type": "bool"
        }
      ],
      "stateMutability": "view",
      "type": "function"
    },
    {
      "inputs": [],
      "name": "isRefunded",
      "outputs": [
        {
          "internalType": "bool",
          "name": "",
          "type": "bool"
        }
      ],
      "stateMutability": "view",
      "type": "function"
    },
    {
      "inputs": [],
      "name": "refund",
      "outputs": [],
      "stateMutability": "nonpayable",
      "type": "function"
    },
    {
      "inputs": [],
      "name": "seller",
      "outputs": [
        {
          "internalType": "address",
          "name": "",
          "type": "address"
        }
      ],
      "stateMutability": "view",
      "type": "function"
    }
  ],
  "bytecode": "0x6080604052604051610c8d380380610c8d833981810160405281019061002591906101c0565b826000806101000a81548173ffffffffffffffffffffffffffffffffffffffff021916908373ffffffffffffffffffffffffffffffffffffffff16021790555081600160006101000a81548173ffffffffffffffffffffffffffffffffffffffff021916908373ffffffffffffffffffffffffffffffffffffffff16021790555080600260006101000a81548173ffffffffffffffffffffffffffffffffffffffff021916908373ffffffffffffffffffffffffffffffffffffffff16021790555060008054906101000a900473ffffffffffffffffffffffffffffffffffffffff1673ffffffffffffffffffffffffffffffffffffffff167fe1fffcc4923d04b559f4d29a8bfc6cda04eb5b0d3c460751c2402c5c5cc9109c3460405161014d919061022c565b60405180910390a2505050610247565b600080fd5b600073ffffffffffffffffffffffffffffffffffffffff82169050919050565b600061018d82610162565b9050919050565b61019d81610182565b81146101a857600080fd5b50565b6000815190506101ba81610194565b92915050565b6000806000606084860312156101d9576101d861015d565b5b60006101e7868287016101ab565b93505060206101f8868287016101ab565b9250506040610209868287016101ab565b9150509250925092565b6000819050919050565b61022681610213565b82525050565b6000602082019050610241600083018461021d565b92915050565b610a37806102566000396000f3fe608060405234801561001057600080fd5b50600436106100885760003560e01c80637150d8ae1161005b5780637150d8ae146100dd578063779cd083146100fb578063a8ba002314610119578063fe25e00a1461013757610088565b806308551a531461008d57806312065fe0146100ab578063590e1ae3146100c95780635e10177b146100d3575b600080fd5b610095610155565b6040516100a291906106e3565b60405180910390f35b6100b361017b565b6040516100c09190610717565b60405180910390f35b6100d1610183565b005b6100db610407565b005b6100e5610632565b6040516100f291906106e3565b60405180910390f35b610103610656565b604051610110919061074d565b60405180910390f35b610121610669565b60405161012e919061074d565b60405180910390f35b61013f61067c565b60405161014c91906106e3565b60405180910390f35b600160009054906101000a900473ffffffffffffffffffffffffffffffffffffffff1681565b600047905090565b600160009054906101000a900473ffffffffffffffffffffffffffffffffffffffff1673ffffffffffffffffffffffffffffffffffffffff163373ffffffffffffffffffffffffffffffffffffffff16148061022c5750600260009054906101000a900473ffffffffffffffffffffffffffffffffffffffff1673ffffffffffffffffffffffffffffffffffffffff163373ffffffffffffffffffffffffffffffffffffffff16145b61026b576040517f08c379a0000000000000000000000000000000000000000000000000000000008152600401610262906107eb565b60405180910390fd5b600047116102ae576040517f08c379a00000000000000000000000000000000000000000000000000000000081526004016102a590610857565b60405180910390fd5b6001600260156101000a81548160ff02191690831515021790555060008060009054906101000a900473ffffffffffffffffffffffffffffffffffffffff1673ffffffffffffffffffffffffffffffffffffffff1647604051610310906108a8565b60006040518083038185875af1925050503d806000811461034d576040519150601f19603f3d011682016040523d82523d6000602084013e610352565b606091505b5050905080610396576040517f08c379a000000000000000000000000000000000000000000000000000000000815260040161038d90610909565b60405180910390fd5b60008054906101000a900473ffffffffffffffffffffffffffffffffffffffff1673ffffffffffffffffffffffffffffffffffffffff167fd7dee2702d63ad89917b6a4da9981c90c4d24f8c2bdfd64c604ecae57d8d0651476040516103fc9190610717565b60405180910390a250565b60008054906101000a900473ffffffffffffffffffffffffffffffffffffffff1673ffffffffffffffffffffffffffffffffffffffff163373ffffffffffffffffffffffffffffffffffffffff1614610495576040517f08c379a000000000000000000000000000000000000000000000000000000000815260040161048c90610975565b60405180910390fd5b600047116104d8576040517f08c379a00000000000000000000000000000000000000000000000000000000081526004016104cf906109e1565b60405180910390fd5b6001600260146101000a81548160ff0219169083151502179055506000600160009054906101000a900473ffffffffffffffffffffffffffffffffffffffff1673ffffffffffffffffffffffffffffffffffffffff164760405161053b906108a8565b60006040518083038185875af1925050503d8060008114610578576040519150601f19603f3d011682016040523d82523d6000602084013e61057d565b606091505b50509050806105c1576040517f08c379a00000000000000000000000000000000000000000000000000000000081526004016105b890610909565b60405180910390fd5b60008054906101000a900473ffffffffffffffffffffffffffffffffffffffff1673ffffffffffffffffffffffffffffffffffffffff167f28720c586a6e736146008f9bf260b09f29b8dcc37314fed637613ea3aec614f8476040516106279190610717565b60405180910390a250565b60008054906101000a900473ffffffffffffffffffffffffffffffffffffffff1681565b600260159054906101000a900460ff1681565b600260149054906101000a900460ff1681565b600260009054906101000a900473ffffffffffffffffffffffffffffffffffffffff1681565b600073ffffffffffffffffffffffffffffffffffffffff82169050919050565b60006106cd826106a2565b9050919050565b6106dd816106c2565b82525050565b60006020820190506106f860008301846106d4565b92915050565b6000819050919050565b610711816106fe565b82525050565b600060208201905061072c6000830184610708565b92915050565b60008115159050919050565b61074781610732565b82525050565b6000602082019050610762600083018461073e565b92915050565b600082825260208201905092915050565b7f4f6e6c792073656c6c6572206f7220617262697465722063616e20726566756e60008201527f6400000000000000000000000000000000000000000000000000000000000000602082015250565b60006107d5602183610768565b91506107e082610779565b604082019050919050565b60006020820190508181036000830152610804816107c8565b9050919050565b7f4e6f2066756e647320746f20726566756e640000000000000000000000000000600082015250565b6000610841601283610768565b915061084c8261080b565b602082019050919050565b6000602082019050818103600083015261087081610834565b9050919050565b600081905092915050565b50565b6000610892600083610877565b915061089d82610882565b600082019050919050565b60006108b382610885565b9150819050919050565b7f4661696c656420746f2073656e64204574686572000000000000000000000000600082015250565b60006108f3601483610768565b91506108fe826108bd565b602082019050919050565b60006020820190508181036000830152610922816108e6565b9050919050565b7f4f6e6c792062757965722063616e20636f6e6669726d2064656c697665727900600082015250565b600061095f601f83610768565b915061096a82610929565b602082019050919050565b6000602082019050818103600083015261098e81610952565b9050919050565b7f4e6f2066756e647320746f2072656c6561736500000000000000000000000000600082015250565b60006109cb601383610768565b91506109d682610995565b602082019050919050565b600060208201905081810360008301526109fa816109be565b905091905056fea2646970667358221220731fefaba6a85f64cac49abd3734f90c6546c63014fde5a988e9e6f8e526deaa64736f6c634300081b0033",
  "linkReferences": {},
  "deployedLinkReferences": {}
}